{
  "contractName": "MultiSignatureWallet",
  "abi": [
    {
      "inputs": [
        {
          "internalType": "address[]",
          "name": "_owners",
          "type": "address[]"
        },
        {
          "internalType": "uint256",
          "name": "_required",
          "type": "uint256"
        }
      ],
      "stateMutability": "nonpayable",
      "type": "constructor"
    },
    {
      "anonymous": false,
      "inputs": [
        {
          "indexed": true,
          "internalType": "address",
          "name": "owner",
          "type": "address"
        },
        {
          "indexed": true,
          "internalType": "uint256",
          "name": "transactionId",
          "type": "uint256"
        }
      ],
      "name": "Confirmation",
      "type": "event"
    },
    {
      "anonymous": false,
      "inputs": [
        {
          "indexed": true,
          "internalType": "address",
          "name": "sender",
          "type": "address"
        },
        {
          "indexed": false,
          "internalType": "uint256",
          "name": "value",
          "type": "uint256"
        }
      ],
      "name": "Deposit",
      "type": "event"
    },
    {
      "anonymous": false,
      "inputs": [
        {
          "indexed": true,
          "internalType": "uint256",
          "name": "transactionId",
          "type": "uint256"
        }
      ],
      "name": "Execution",
      "type": "event"
    },
    {
      "anonymous": false,
      "inputs": [
        {
          "indexed": true,
          "internalType": "uint256",
          "name": "transactionId",
          "type": "uint256"
        }
      ],
      "name": "ExecutionFailure",
      "type": "event"
    },
    {
      "anonymous": false,
      "inputs": [
        {
          "indexed": true,
          "internalType": "uint256",
          "name": "transactionId",
          "type": "uint256"
        }
      ],
      "name": "Submission",
      "type": "event"
    },
    {
      "stateMutability": "payable",
      "type": "fallback"
    },
    {
      "inputs": [
        {
          "internalType": "uint256",
          "name": "",
          "type": "uint256"
        },
        {
          "internalType": "address",
          "name": "",
          "type": "address"
        }
      ],
      "name": "confirmations",
      "outputs": [
        {
          "internalType": "bool",
          "name": "",
          "type": "bool"
        }
      ],
      "stateMutability": "view",
      "type": "function"
    },
    {
      "inputs": [],
      "name": "confirmationsRequired",
      "outputs": [
        {
          "internalType": "uint256",
          "name": "",
          "type": "uint256"
        }
      ],
      "stateMutability": "view",
      "type": "function"
    },
    {
      "inputs": [
        {
          "internalType": "uint256",
          "name": "",
          "type": "uint256"
        }
      ],
      "name": "idToTransactions",
      "outputs": [
        {
          "internalType": "bool",
          "name": "executed",
          "type": "bool"
        },
        {
          "internalType": "address",
          "name": "destination",
          "type": "address"
        },
        {
          "internalType": "uint256",
          "name": "value",
          "type": "uint256"
        },
        {
          "internalType": "bytes",
          "name": "data",
          "type": "bytes"
        }
      ],
      "stateMutability": "view",
      "type": "function"
    },
    {
      "inputs": [
        {
          "internalType": "address",
          "name": "",
          "type": "address"
        }
      ],
      "name": "isOwner",
      "outputs": [
        {
          "internalType": "bool",
          "name": "",
          "type": "bool"
        }
      ],
      "stateMutability": "view",
      "type": "function"
    },
    {
      "inputs": [
        {
          "internalType": "uint256",
          "name": "",
          "type": "uint256"
        }
      ],
      "name": "owners",
      "outputs": [
        {
          "internalType": "address",
          "name": "",
          "type": "address"
        }
      ],
      "stateMutability": "view",
      "type": "function"
    },
    {
      "inputs": [],
      "name": "transactionCount",
      "outputs": [
        {
          "internalType": "uint256",
          "name": "",
          "type": "uint256"
        }
      ],
      "stateMutability": "view",
      "type": "function"
    },
    {
      "stateMutability": "payable",
      "type": "receive"
    },
    {
      "inputs": [
        {
          "internalType": "address",
          "name": "destination",
          "type": "address"
        },
        {
          "internalType": "uint256",
          "name": "value",
          "type": "uint256"
        },
        {
          "internalType": "bytes",
          "name": "data",
          "type": "bytes"
        }
      ],
      "name": "submitTransaction",
      "outputs": [
        {
          "internalType": "uint256",
          "name": "transactionId",
          "type": "uint256"
        }
      ],
      "stateMutability": "nonpayable",
      "type": "function"
    },
    {
      "inputs": [
        {
          "internalType": "uint256",
          "name": "transactionId",
          "type": "uint256"
        }
      ],
      "name": "confirmTransaction",
      "outputs": [
        {
          "internalType": "bool",
          "name": "success",
          "type": "bool"
        }
      ],
      "stateMutability": "nonpayable",
      "type": "function"
    },
    {
      "inputs": [
        {
          "internalType": "uint256",
          "name": "transactionId",
          "type": "uint256"
        }
      ],
      "name": "executeTransaction",
      "outputs": [],
      "stateMutability": "nonpayable",
      "type": "function"
    },
    {
      "inputs": [
        {
          "internalType": "uint256",
          "name": "transactionId",
          "type": "uint256"
        }
      ],
      "name": "revokeConfirmation",
      "outputs": [],
      "stateMutability": "nonpayable",
      "type": "function"
    }
  ],
  "bytecode": "0x60806040523480156200001157600080fd5b5060405162001ad338038062001ad3833981810160405281019062000037919062000433565b81518181811080156200004a5750600082115b8015620000575750600081115b62000099576040517f08c379a00000000000000000000000000000000000000000000000000000000081526004016200009090620004fa565b60405180910390fd5b60005b84518110156200013157600160036000878481518110620000c257620000c16200051c565b5b602002602001015173ffffffffffffffffffffffffffffffffffffffff1673ffffffffffffffffffffffffffffffffffffffff16815260200190815260200160002060006101000a81548160ff021916908315150217905550808062000128906200057a565b9150506200009c565b5083600090805190602001906200014a9291906200015c565b508260018190555050505050620005c8565b828054828255906000526020600020908101928215620001d8579160200282015b82811115620001d75782518260006101000a81548173ffffffffffffffffffffffffffffffffffffffff021916908373ffffffffffffffffffffffffffffffffffffffff160217905550916020019190600101906200017d565b5b509050620001e79190620001eb565b5090565b5b8082111562000206576000816000905550600101620001ec565b5090565b6000604051905090565b600080fd5b600080fd5b600080fd5b6000601f19601f8301169050919050565b7f4e487b7100000000000000000000000000000000000000000000000000000000600052604160045260246000fd5b6200026e8262000223565b810181811067ffffffffffffffff8211171562000290576200028f62000234565b5b80604052505050565b6000620002a56200020a565b9050620002b3828262000263565b919050565b600067ffffffffffffffff821115620002d657620002d562000234565b5b602082029050602081019050919050565b600080fd5b600073ffffffffffffffffffffffffffffffffffffffff82169050919050565b60006200031982620002ec565b9050919050565b6200032b816200030c565b81146200033757600080fd5b50565b6000815190506200034b8162000320565b92915050565b6000620003686200036284620002b8565b62000299565b905080838252602082019050602084028301858111156200038e576200038d620002e7565b5b835b81811015620003bb5780620003a688826200033a565b84526020840193505060208101905062000390565b5050509392505050565b600082601f830112620003dd57620003dc6200021e565b5b8151620003ef84826020860162000351565b91505092915050565b6000819050919050565b6200040d81620003f8565b81146200041957600080fd5b50565b6000815190506200042d8162000402565b92915050565b600080604083850312156200044d576200044c62000214565b5b600083015167ffffffffffffffff8111156200046e576200046d62000219565b5b6200047c85828601620003c5565b92505060206200048f858286016200041c565b9150509250929050565b600082825260208201905092915050565b7f436f6e6669726d6174696f6e73206e6565646564204e6f742056616c69640000600082015250565b6000620004e2601e8362000499565b9150620004ef82620004aa565b602082019050919050565b600060208201905081810360008301526200051581620004d3565b9050919050565b7f4e487b7100000000000000000000000000000000000000000000000000000000600052603260045260246000fd5b7f4e487b7100000000000000000000000000000000000000000000000000000000600052601160045260246000fd5b60006200058782620003f8565b91507fffffffffffffffffffffffffffffffffffffffffffffffffffffffffffffffff821415620005bd57620005bc6200054b565b5b600182019050919050565b6114fb80620005d86000396000f3fe6080604052600436106100955760003560e01c8063b77bf60011610059578063b77bf6001461024f578063c01a8c841461027a578063c6427474146102b7578063e8b2c243146102f4578063ee22610b1461031f576100d5565b8063025e7c271461012f57806320ea8d861461016c5780632f54bf6e146101955780633411c81c146101d2578063acdecfd61461020f576100d5565b366100d5576040517f08c379a00000000000000000000000000000000000000000000000000000000081526004016100cc90610ce2565b60405180910390fd5b600034111561012d573373ffffffffffffffffffffffffffffffffffffffff167fe1fffcc4923d04b559f4d29a8bfc6cda04eb5b0d3c460751c2402c5c5cc9109c346040516101249190610d1b565b60405180910390a25b005b34801561013b57600080fd5b5061015660048036038101906101519190610d76565b610348565b6040516101639190610de4565b60405180910390f35b34801561017857600080fd5b50610193600480360381019061018e9190610d76565b610387565b005b3480156101a157600080fd5b506101bc60048036038101906101b79190610e2b565b61038a565b6040516101c99190610e73565b60405180910390f35b3480156101de57600080fd5b506101f960048036038101906101f49190610e8e565b6103aa565b6040516102069190610e73565b60405180910390f35b34801561021b57600080fd5b5061023660048036038101906102319190610d76565b6103d9565b6040516102469493929190610f67565b60405180910390f35b34801561025b57600080fd5b506102646104be565b6040516102719190610d1b565b60405180910390f35b34801561028657600080fd5b506102a1600480360381019061029c9190610d76565b6104c4565b6040516102ae9190610e73565b60405180910390f35b3480156102c357600080fd5b506102de60048036038101906102d991906110e8565b610713565b6040516102eb9190610d1b565b60405180910390f35b34801561030057600080fd5b506103096107bf565b6040516103169190610d1b565b60405180910390f35b34801561032b57600080fd5b5061034660048036038101906103419190610d76565b6107c5565b005b6000818154811061035857600080fd5b906000526020600020016000915054906101000a900473ffffffffffffffffffffffffffffffffffffffff1681565b50565b60036020528060005260406000206000915054906101000a900460ff1681565b60056020528160005260406000206020528060005260406000206000915091509054906101000a900460ff1681565b60046020528060005260406000206000915090508060000160009054906101000a900460ff16908060000160019054906101000a900473ffffffffffffffffffffffffffffffffffffffff169080600101549080600201805461043b90611186565b80601f016020809104026020016040519081016040528092919081815260200182805461046790611186565b80156104b45780601f10610489576101008083540402835291602001916104b4565b820191906000526020600020905b81548152906001019060200180831161049757829003601f168201915b5050505050905084565b60025481565b60008015156005600084815260200190815260200160002060003373ffffffffffffffffffffffffffffffffffffffff1673ffffffffffffffffffffffffffffffffffffffff16815260200190815260200160002060009054906101000a900460ff16151514610569576040517f08c379a000000000000000000000000000000000000000000000000000000000815260040161056090611204565b60405180910390fd5b600360003373ffffffffffffffffffffffffffffffffffffffff1673ffffffffffffffffffffffffffffffffffffffff16815260200190815260200160002060009054906101000a900460ff166105f5576040517f08c379a00000000000000000000000000000000000000000000000000000000081526004016105ec90611270565b60405180910390fd5b600073ffffffffffffffffffffffffffffffffffffffff166004600084815260200190815260200160002060000160019054906101000a900473ffffffffffffffffffffffffffffffffffffffff1673ffffffffffffffffffffffffffffffffffffffff16141561069b576040517f08c379a0000000000000000000000000000000000000000000000000000000008152600401610692906112dc565b60405180910390fd5b6106a4826107c5565b60016005600084815260200190815260200160002060003373ffffffffffffffffffffffffffffffffffffffff1673ffffffffffffffffffffffffffffffffffffffff16815260200190815260200160002060006101000a81548160ff02191690831515021790559050919050565b6000600360003373ffffffffffffffffffffffffffffffffffffffff1673ffffffffffffffffffffffffffffffffffffffff16815260200190815260200160002060009054906101000a900460ff166107a1576040517f08c379a000000000000000000000000000000000000000000000000000000000815260040161079890611270565b60405180910390fd5b6107ac8484846109a5565b90506107b7816104c4565b509392505050565b60015481565b600015156004600083815260200190815260200160002060000160009054906101000a900460ff1615151461082f576040517f08c379a000000000000000000000000000000000000000000000000000000000815260040161082690611348565b60405180910390fd5b61083881610ad8565b156109a25760016004600083815260200190815260200160002060000160006101000a81548160ff021916908315150217905550600060046000838152602001908152602001600020905060008160000160019054906101000a900473ffffffffffffffffffffffffffffffffffffffff1673ffffffffffffffffffffffffffffffffffffffff168260010154836002016040516108d69190611407565b60006040518083038185875af1925050503d8060008114610913576040519150601f19603f3d011682016040523d82523d6000602084013e610918565b606091505b50509050801561095457827f33e13ecb54c3076d8e8bb8c2881800a4d972b792045ffae98fdf46df365fed7560405160405180910390a261099f565b827f526441bb6c1aba3c9a4a6ca1d6545da9c2333c8c48343ef398eb858d72b7923660405160405180910390a260008260000160006101000a81548160ff0219169083151502179055505b50505b50565b6000600260008154809291906109ba9061144d565b919050559050600060405180608001604052806000151581526020018673ffffffffffffffffffffffffffffffffffffffff168152602001858152602001848152509050806004600084815260200190815260200160002060008201518160000160006101000a81548160ff02191690831515021790555060208201518160000160016101000a81548173ffffffffffffffffffffffffffffffffffffffff021916908373ffffffffffffffffffffffffffffffffffffffff160217905550604082015181600101556060820151816002019080519060200190610a9f929190610be2565b50905050817fc0ba8fe4b176c1714197d43b9cc6bcf797a4a7461c5fe8d0ef6e184ae7601e5160405160405180910390a2509392505050565b6000806000805490509050600080600090505b82811015610bd9576000600560008781526020019081526020016000206000808481548110610b1d57610b1c611496565b5b9060005260206000200160009054906101000a900473ffffffffffffffffffffffffffffffffffffffff1673ffffffffffffffffffffffffffffffffffffffff1673ffffffffffffffffffffffffffffffffffffffff16815260200190815260200160002060009054906101000a900460ff169050600115158115151415610bae578280610baa9061144d565b9350505b600154831415610bc5576001945050505050610bdd565b508080610bd19061144d565b915050610aeb565b5050505b919050565b828054610bee90611186565b90600052602060002090601f016020900481019282610c105760008555610c57565b82601f10610c2957805160ff1916838001178555610c57565b82800160010185558215610c57579182015b82811115610c56578251825591602001919060010190610c3b565b5b509050610c649190610c68565b5090565b5b80821115610c81576000816000905550600101610c69565b5090565b600082825260208201905092915050565b7f4e6f2063616c6c206461746120737570706c6965640000000000000000000000600082015250565b6000610ccc601583610c85565b9150610cd782610c96565b602082019050919050565b60006020820190508181036000830152610cfb81610cbf565b9050919050565b6000819050919050565b610d1581610d02565b82525050565b6000602082019050610d306000830184610d0c565b92915050565b6000604051905090565b600080fd5b600080fd5b610d5381610d02565b8114610d5e57600080fd5b50565b600081359050610d7081610d4a565b92915050565b600060208284031215610d8c57610d8b610d40565b5b6000610d9a84828501610d61565b91505092915050565b600073ffffffffffffffffffffffffffffffffffffffff82169050919050565b6000610dce82610da3565b9050919050565b610dde81610dc3565b82525050565b6000602082019050610df96000830184610dd5565b92915050565b610e0881610dc3565b8114610e1357600080fd5b50565b600081359050610e2581610dff565b92915050565b600060208284031215610e4157610e40610d40565b5b6000610e4f84828501610e16565b91505092915050565b60008115159050919050565b610e6d81610e58565b82525050565b6000602082019050610e886000830184610e64565b92915050565b60008060408385031215610ea557610ea4610d40565b5b6000610eb385828601610d61565b9250506020610ec485828601610e16565b9150509250929050565b600081519050919050565b600082825260208201905092915050565b60005b83811015610f08578082015181840152602081019050610eed565b83811115610f17576000848401525b50505050565b6000601f19601f8301169050919050565b6000610f3982610ece565b610f438185610ed9565b9350610f53818560208601610eea565b610f5c81610f1d565b840191505092915050565b6000608082019050610f7c6000830187610e64565b610f896020830186610dd5565b610f966040830185610d0c565b8181036060830152610fa88184610f2e565b905095945050505050565b600080fd5b600080fd5b7f4e487b7100000000000000000000000000000000000000000000000000000000600052604160045260246000fd5b610ff582610f1d565b810181811067ffffffffffffffff8211171561101457611013610fbd565b5b80604052505050565b6000611027610d36565b90506110338282610fec565b919050565b600067ffffffffffffffff82111561105357611052610fbd565b5b61105c82610f1d565b9050602081019050919050565b82818337600083830152505050565b600061108b61108684611038565b61101d565b9050828152602081018484840111156110a7576110a6610fb8565b5b6110b2848285611069565b509392505050565b600082601f8301126110cf576110ce610fb3565b5b81356110df848260208601611078565b91505092915050565b60008060006060848603121561110157611100610d40565b5b600061110f86828701610e16565b935050602061112086828701610d61565b925050604084013567ffffffffffffffff81111561114157611140610d45565b5b61114d868287016110ba565b9150509250925092565b7f4e487b7100000000000000000000000000000000000000000000000000000000600052602260045260246000fd5b6000600282049050600182168061119e57607f821691505b602082108114156111b2576111b1611157565b5b50919050565b7f5472616e73616374696f6e20616c726561647920636f6e6669726d6564000000600082015250565b60006111ee601d83610c85565b91506111f9826111b8565b602082019050919050565b6000602082019050818103600083015261121d816111e1565b9050919050565b7f4f6e6c7920436f6e7472616374206f776e6572206d617920696e766f6b650000600082015250565b600061125a601e83610c85565b915061126582611224565b602082019050919050565b600060208201905081810360008301526112898161124d565b9050919050565b7f5472616e73616374696f6e20646f6573206e6f74206578697374730000000000600082015250565b60006112c6601b83610c85565b91506112d182611290565b602082019050919050565b600060208201905081810360008301526112f5816112b9565b9050919050565b7f5472616e73616374696f6e20616c726561647920657865637574656400000000600082015250565b6000611332601c83610c85565b915061133d826112fc565b602082019050919050565b6000602082019050818103600083015261136181611325565b9050919050565b600081905092915050565b60008190508160005260206000209050919050565b6000815461139581611186565b61139f8186611368565b945060018216600081146113ba57600181146113cb576113fe565b60ff198316865281860193506113fe565b6113d485611373565b60005b838110156113f6578154818901526001820191506020810190506113d7565b838801955050505b50505092915050565b60006114138284611388565b915081905092915050565b7f4e487b7100000000000000000000000000000000000000000000000000000000600052601160045260246000fd5b600061145882610d02565b91507fffffffffffffffffffffffffffffffffffffffffffffffffffffffffffffffff82141561148b5761148a61141e565b5b600182019050919050565b7f4e487b7100000000000000000000000000000000000000000000000000000000600052603260045260246000fdfea26469706673582212201e4e57603042da2c43c5881d96cc9d489f18a74d574904bf2a15e609d846261d64736f6c634300080a0033",
  "immutableReferences": {},
  "source": "pragma solidity ^0.8.10;\n\ncontract MultiSignatureWallet {\n    address[] public owners;\n    uint256 public confirmationsRequired;\n    uint256 public transactionCount;\n\n    mapping(address => bool) public isOwner;\n    mapping(uint256 => Transaction) public idToTransactions;\n    mapping(uint256 => mapping(address => bool)) public confirmations;\n\n    struct Transaction {\n        bool executed;\n        address destination;\n        uint256 value;\n        bytes data;\n    }\n\n    event Submission(uint256 indexed transactionId);\n    event Deposit(address indexed sender, uint256 value);\n    event Confirmation(address indexed owner, uint256 indexed transactionId);\n    event Execution(uint256 indexed transactionId);\n    event ExecutionFailure(uint256 indexed transactionId);\n\n    /// @dev Fallback function allows to deposit ether.\n    fallback() external payable {\n        if (msg.value > 0) emit Deposit(msg.sender, msg.value);\n    }\n\n    receive() external payable {\n        //msg.sender.tranfer(msg.value);\n        revert(\"No call data supplied\");\n    }\n\n    modifier validRequirment(uint256 ownerCount, uint256 confirmationsNeeded) {\n        require(\n            confirmationsNeeded < ownerCount && ownerCount > 0 && confirmationsNeeded > 0,\n            \"Confirmations needed Not Valid\"\n        );\n        _;\n    }\n\n    /// @dev Contract constructor sets initial owners and required number of confirmations.\n    /// @param _owners List of initial owners.\n    /// @param _required Number of required confirmations.\n    constructor(address[] memory _owners, uint256 _required)\n        validRequirment(_owners.length, _required)\n    {\n        for (uint256 i = 0; i < _owners.length; i++) {\n            isOwner[_owners[i]] = true;\n        }\n        owners = _owners;\n        confirmationsRequired = _required;\n    }\n\n    /// @dev Allows an owner to submit and confirm a transaction.\n    /// @param destination Transaction target address.\n    /// @param value Transaction ether value.\n    /// @param data Transaction data payload.\n    /// @return transactionId Returns transaction ID.\n    function submitTransaction(\n        address destination,\n        uint256 value,\n        bytes memory data\n    ) public returns (uint256 transactionId) {\n        require(isOwner[msg.sender], \"Only Contract owner may invoke\");\n        transactionId = addTransaction(destination, value, data);\n        confirmTransaction(transactionId);\n    }\n\n    /// @dev Allows an owner to confirm a transaction.\n    /// @param transactionId Transaction ID.\n    // verify that a transaction exists at the specified transactionId\n    // mapping (uint transactionId => Transaction) public idToTransactions;\n    //verify that the msg.sender has not already confirmed this transaction.\n    // mapping (uint transactionID => mapping (address owner => bool)) public confirmations\n    function confirmTransaction(uint256 transactionId) public returns (bool success) {\n        require(confirmations[transactionId][msg.sender] == false, \"Transaction already confirmed\");\n        require(isOwner[msg.sender], \"Only Contract owner may invoke\");\n        require(\n            idToTransactions[transactionId].destination != address(0),\n            \"Transaction does not exists\"\n        );\n        executeTransaction(transactionId);\n        return confirmations[transactionId][msg.sender] = true;\n    }\n\n    /// @dev Adds a new transaction to the transaction mapping, if transaction does not exist yet.\n    /// @param destination Transaction target address.\n    /// @param value Transaction ether value.\n    /// @param data Transaction data payload.\n    /// @return transactionId Returns transaction ID.\n    function addTransaction(\n        address destination,\n        uint256 value,\n        bytes memory data\n    ) internal returns (uint256 transactionId) {\n        //starting at 1 rather than 0;\n        transactionId = transactionCount++;\n\n        Transaction memory transaction = Transaction(false, destination, value, data);\n        idToTransactions[transactionId] = transaction;\n        emit Submission(transactionId);\n    }\n\n    /// @dev Allows anyone to execute a confirmed transaction.\n    /// @param transactionId Transaction ID.\n    function executeTransaction(uint256 transactionId) public {\n        /* Transaction at the specified id has not already been executed.\n         */\n        require(idToTransactions[transactionId].executed == false, \"Transaction already executed\");\n        //if confirmed, mutate state to true\n        if (isConfirmed(transactionId)) {\n            idToTransactions[transactionId].executed = true;\n            Transaction storage executedTx = idToTransactions[transactionId];\n            (bool success, ) = executedTx.destination.call{value: executedTx.value}(\n                executedTx.data\n            );\n\n            if (success) emit Execution(transactionId);\n            else {\n                emit ExecutionFailure(transactionId);\n                executedTx.executed = false;\n            }\n        }\n    }\n\n    /// @dev Allows an owner to revoke a confirmation for a transaction.\n    /// @param transactionId Transaction ID.\n    function revokeConfirmation(uint256 transactionId) public {}\n\n    /// @dev Returns _isConfirmed the confirmation status of a transaction.\n    /// @param transactionId Transaction ID.\n    /// @return _isConfirmed : Confirmation status.\n    function isConfirmed(uint256 transactionId) internal view returns (bool _isConfirmed) {\n        uint256 _owners = owners.length;\n        uint256 ownerConfirmations;\n        for (uint256 i = 0; i < _owners; i++) {\n            bool ownerConfirmed = confirmations[transactionId][owners[i]];\n            if (ownerConfirmed == true) ownerConfirmations++;\n            if (ownerConfirmations == confirmationsRequired) return true;\n        }\n    }\n}\n",
  "sourcePath": "/Users/Darkwing/Desktop/Consensys/githubRepos/multisig-wallet-exercise/contracts/MultiSignatureWallet.sol",
  "compiler": {
    "name": "solc",
    "version": "0.8.10+commit.fc410830.Emscripten.clang"
  },
  "schemaVersion": "3.4.4",
  "updatedAt": "2021-12-24T05:38:51.406Z",
  "devdoc": {
    "kind": "dev",
    "methods": {
      "confirmTransaction(uint256)": {
        "details": "Allows an owner to confirm a transaction.",
        "params": {
          "transactionId": "Transaction ID."
        }
      },
      "constructor": {
        "details": "Contract constructor sets initial owners and required number of confirmations.",
        "params": {
          "_owners": "List of initial owners.",
          "_required": "Number of required confirmations."
        }
      },
      "executeTransaction(uint256)": {
        "details": "Allows anyone to execute a confirmed transaction.",
        "params": {
          "transactionId": "Transaction ID."
        }
      },
      "revokeConfirmation(uint256)": {
        "details": "Allows an owner to revoke a confirmation for a transaction.",
        "params": {
          "transactionId": "Transaction ID."
        }
      },
      "submitTransaction(address,uint256,bytes)": {
        "details": "Allows an owner to submit and confirm a transaction.",
        "params": {
          "data": "Transaction data payload.",
          "destination": "Transaction target address.",
          "value": "Transaction ether value."
        },
        "returns": {
          "transactionId": "Returns transaction ID."
        }
      }
    },
    "version": 1
  },
  "userdoc": {
    "kind": "user",
    "methods": {},
    "version": 1
  }
}